{
  "contractName": "Poav",
  "abi": [
    {
      "inputs": [
        {
          "internalType": "uint256",
          "name": "ph",
          "type": "uint256"
        }
      ],
      "payable": false,
      "stateMutability": "nonpayable",
      "type": "constructor"
    },
    {
      "anonymous": false,
      "inputs": [
        {
          "indexed": false,
          "internalType": "address",
          "name": "verifier",
          "type": "address"
        },
        {
          "indexed": false,
          "internalType": "uint8",
          "name": "feedback",
          "type": "uint8"
        },
        {
          "indexed": false,
          "internalType": "bytes",
          "name": "zk_proof",
          "type": "bytes"
        },
        {
          "indexed": false,
          "internalType": "uint8",
          "name": "result",
          "type": "uint8"
        },
        {
          "indexed": false,
          "internalType": "uint256",
          "name": "delta",
          "type": "uint256"
        },
        {
          "indexed": false,
          "internalType": "uint256",
          "name": "today",
          "type": "uint256"
        },
        {
          "indexed": false,
          "internalType": "uint256",
          "name": "is_younger",
          "type": "uint256"
        },
        {
          "indexed": false,
          "internalType": "uint256",
          "name": "prover_key",
          "type": "uint256"
        }
      ],
      "name": "PoavEvent",
      "type": "event"
    },
    {
      "constant": true,
      "inputs": [],
      "name": "getPhotoHash",
      "outputs": [
        {
          "internalType": "uint256",
          "name": "",
          "type": "uint256"
        }
      ],
      "payable": false,
      "stateMutability": "view",
      "type": "function"
    },
    {
      "constant": false,
      "inputs": [
        {
          "internalType": "uint8",
          "name": "feedback",
          "type": "uint8"
        },
        {
          "internalType": "bytes",
          "name": "zk_proof",
          "type": "bytes"
        },
        {
          "internalType": "uint256",
          "name": "delta",
          "type": "uint256"
        },
        {
          "internalType": "uint256",
          "name": "today",
          "type": "uint256"
        },
        {
          "internalType": "uint256",
          "name": "is_younger",
          "type": "uint256"
        },
        {
          "internalType": "uint256",
          "name": "prover_key",
          "type": "uint256"
        }
      ],
      "name": "recordProof",
      "outputs": [
        {
          "internalType": "uint8",
          "name": "",
          "type": "uint8"
        }
      ],
      "payable": false,
      "stateMutability": "nonpayable",
      "type": "function"
    }
  ],
  "bytecode": "0x608060405234801561001057600080fd5b5060405161031c38038061031c8339818101604052602081101561003357600080fd5b810190808051906020019092919050505080600081905550506102c18061005b6000396000f3fe608060405234801561001057600080fd5b50600436106100365760003560e01c8063c475435c1461003b578063d190f17914610145575b600080fd5b610129600480360360c081101561005157600080fd5b81019080803560ff1690602001909291908035906020019064010000000081111561007b57600080fd5b82018360208201111561008d57600080fd5b803590602001918460018302840111640100000000831117156100af57600080fd5b91908080601f016020809104026020016040519081016040528093929190818152602001838380828437600081840152601f19601f82011690508083019250505050505050919291929080359060200190929190803590602001909291908035906020019092919080359060200190929190505050610163565b604051808260ff1660ff16815260200191505060405180910390f35b61014d610283565b6040518082815260200191505060405180910390f35b6000808790507f85f6fe2ec8496fcc55544253e8024b6e156d0d91b512dcf381b1b826d3e24356338989848a8a8a8a604051808973ffffffffffffffffffffffffffffffffffffffff1673ffffffffffffffffffffffffffffffffffffffff1681526020018860ff1660ff168152602001806020018760ff1660ff168152602001868152602001858152602001848152602001838152602001828103825288818151815260200191508051906020019080838360005b83811015610234578082015181840152602081019050610219565b50505050905090810190601f1680156102615780820380516001836020036101000a031916815260200191505b50995050505050505050505060405180910390a1809150509695505050505050565b6000805490509056fea265627a7a723158200177ee2fd04cd345bbeec02581c4e9a87b8fc24cc2c9ce0f1c36d585c382189564736f6c63430005100032",
  "source": "pragma solidity >=0.4.22 <0.8.0;\n\n\n// Legalage contract to make the PROOF OF AGE VERIFICATION.\n// The contract stores the ZK proof on the chain together with all \n// input data for its validation.\n//\n// The current form of contract is trivial, but the contract is expected\n// to be extended to provide a method for verification\n// payment according to a selected bussiness model. For example\n// the certifier may be paid by the verifier for each verification by\n// a direct transfer of funds of the prover may prepaid certain amount\n// of verifications which are released after successfull ZK proof\n// verification. In the later case ZK proof verification would be\n// called (generated either by ZoKrates of a similar tool.)\ncontract Poav {\n\n    // SHA256 hash of the prover's photo. Permanent, immutable.\n    uint photo_hash;\n\n    // Creates the POAV contract.\n    constructor(uint ph) public {\n        photo_hash = ph;\n    }\n\n    function getPhotoHash() public view returns (uint256) {\n        return photo_hash;\n    }\n\n    // Event emmited after each POAV.\n    event PoavEvent(\n       \t  address verifier,\n    \t  uint8 feedback,\n\t  bytes zk_proof,\n\t  uint8 result,\n\t  uint delta,\n\t  uint today,\n\t  uint is_younger,\n\t  uint256 prover_key);\n\t  \n    // Proof of Age Verification\n    function recordProof(\n            uint8 feedback,   \n            bytes memory zk_proof,\n            uint delta,\n\t    uint today,\n\t    uint is_younger,\n\t    uint256 prover_key\n        ) public  returns (uint8)\n     {\n            uint8 result = feedback;\n\t    emit PoavEvent(\n\t    \t msg.sender,\n\t\t feedback,\n\t\t zk_proof,\n\t\t result,\n\t\t delta,\n\t\t today,\n\t\t is_younger,\n\t\t prover_key);\n\treturn result;\n     }\n}\n",
  "sourcePath": "/home/sla/prj/harla/0044_final_transaction/c0044/contracts/Poav.sol",
  "compiler": {
    "name": "solc",
    "version": "0.5.16+commit.9c3226ce.Emscripten.clang"
  },
  "schemaVersion": "3.3.3",
  "updatedAt": "2021-01-15T20:11:22.153Z",
  "networkType": "ethereum",
  "devdoc": {
    "methods": {}
  },
  "userdoc": {
    "methods": {}
  }
}